{
  "_format": "hh-sol-artifact-1",
  "contractName": "Coffee",
  "sourceName": "contracts/coffee.sol",
  "abi": [
    {
      "inputs": [],
      "name": "DirectEtherTransferNotAllowed",
      "type": "error"
    },
    {
      "inputs": [
        {
          "internalType": "uint256",
          "name": "required",
          "type": "uint256"
        },
        {
          "internalType": "uint256",
          "name": "sent",
          "type": "uint256"
        }
      ],
      "name": "InsufficientEtherSent",
      "type": "error"
    },
    {
      "inputs": [],
      "name": "QuantityMustBeGreaterThanZero",
      "type": "error"
    },
    {
      "anonymous": false,
      "inputs": [
        {
          "indexed": true,
          "internalType": "address",
          "name": "buyer",
          "type": "address"
        },
        {
          "indexed": false,
          "internalType": "uint256",
          "name": "quantity",
          "type": "uint256"
        },
        {
          "indexed": false,
          "internalType": "uint256",
          "name": "totalCost",
          "type": "uint256"
        }
      ],
      "name": "CoffeePurchased",
      "type": "event"
    },
    {
      "inputs": [
        {
          "internalType": "uint256",
          "name": "quantity",
          "type": "uint256"
        }
      ],
      "name": "buyCoffee",
      "outputs": [],
      "stateMutability": "payable",
      "type": "function"
    },
    {
      "inputs": [],
      "name": "coffeePrice",
      "outputs": [
        {
          "internalType": "uint256",
          "name": "",
          "type": "uint256"
        }
      ],
      "stateMutability": "view",
      "type": "function"
    },
    {
      "inputs": [],
      "name": "getTotalCoffeesSold",
      "outputs": [
        {
          "internalType": "uint256",
          "name": "",
          "type": "uint256"
        }
      ],
      "stateMutability": "view",
      "type": "function"
    },
    {
      "inputs": [],
      "name": "getTotalEtherReceived",
      "outputs": [
        {
          "internalType": "uint256",
          "name": "",
          "type": "uint256"
        }
      ],
      "stateMutability": "view",
      "type": "function"
    },
    {
      "inputs": [],
      "name": "totalCoffeesSold",
      "outputs": [
        {
          "internalType": "uint256",
          "name": "",
          "type": "uint256"
        }
      ],
      "stateMutability": "view",
      "type": "function"
    },
    {
      "inputs": [],
      "name": "totalEtherReceived",
      "outputs": [
        {
          "internalType": "uint256",
          "name": "",
          "type": "uint256"
        }
      ],
      "stateMutability": "view",
      "type": "function"
    },
    {
      "stateMutability": "payable",
      "type": "receive"
    }
  ],
  "bytecode": "0x608060405234801561001057600080fd5b506107d7806100206000396000f3fe6080604052600436106100595760003560e01c80631c8a403814610094578063657b2d89146100bf5780637ef3e741146100ea5780639fd66f9014610115578063b03b4a2914610140578063e926b8d01461015c5761008f565b3661008f576040517ebbbfa300000000000000000000000000000000000000000000000000000000815260040160405180910390fd5b600080fd5b3480156100a057600080fd5b506100a9610187565b6040516100b69190610537565b60405180910390f35b3480156100cb57600080fd5b506100d4610191565b6040516100e19190610537565b60405180910390f35b3480156100f657600080fd5b506100ff6101dc565b60405161010c9190610537565b60405180910390f35b34801561012157600080fd5b5061012a6101e2565b6040516101379190610537565b60405180910390f35b61015a60048036038101906101559190610583565b6101e8565b005b34801561016857600080fd5b506101716103e7565b60405161017e9190610537565b60405180910390f35b65b5e620f4800081565b60006101d46040518060400160405280601781526020017f676574546f74616c45746865725265636569766564203a000000000000000000815250600154610432565b600154905090565b60015481565b60005481565b60008111610222576040517f0cdcd02000000000000000000000000000000000000000000000000000000000815260040160405180910390fd5b60008165b5e620f4800061023691906105df565b90508034111561027f5780346040517f8ad0844f000000000000000000000000000000000000000000000000000000008152600401610276929190610621565b60405180910390fd5b81600080828254610290919061064a565b9250508190555080600160008282546102a9919061064a565b925050819055506102f16040518060400160405280601d81526020017f546f74616c20657468657220726563656976656420757064617465643a000000815250600154610432565b6103326040518060400160405280601a81526020017f546f74616c20636f6666656520736f6c6420757064617465643a000000000000815250600054610432565b3373ffffffffffffffffffffffffffffffffffffffff167fb706f7a46856e7a0e4f8f504c23f2ac26950209db23c2125108eed5ef9e333d3838360405161037a929190610621565b60405180910390a2803411156103e35760008134610398919061067e565b90503373ffffffffffffffffffffffffffffffffffffffff166108fc829081150290604051600060405180830381858888f193505050501580156103e0573d6000803e3d6000fd5b50505b5050565b600061042a6040518060400160405280601581526020017f676574546f74616c436f6666656573536f6c64203a0000000000000000000000815250600054610432565b600054905090565b6104ca8282604051602401610448929190610742565b6040516020818303038152906040527fb60e72cc000000000000000000000000000000000000000000000000000000007bffffffffffffffffffffffffffffffffffffffffffffffffffffffff19166020820180517bffffffffffffffffffffffffffffffffffffffffffffffffffffffff83818316178352505050506104ce565b5050565b6104e5816104dd6104e8610509565b63ffffffff16565b50565b60006a636f6e736f6c652e6c6f679050600080835160208501845afa505050565b610514819050919050565b61051c610772565b565b6000819050919050565b6105318161051e565b82525050565b600060208201905061054c6000830184610528565b92915050565b600080fd5b6105608161051e565b811461056b57600080fd5b50565b60008135905061057d81610557565b92915050565b60006020828403121561059957610598610552565b5b60006105a78482850161056e565b91505092915050565b7f4e487b7100000000000000000000000000000000000000000000000000000000600052601160045260246000fd5b60006105ea8261051e565b91506105f58361051e565b92508282026106038161051e565b9150828204841483151761061a576106196105b0565b5b5092915050565b60006040820190506106366000830185610528565b6106436020830184610528565b9392505050565b60006106558261051e565b91506106608361051e565b9250828201905080821115610678576106776105b0565b5b92915050565b60006106898261051e565b91506106948361051e565b92508282039050818111156106ac576106ab6105b0565b5b92915050565b600081519050919050565b600082825260208201905092915050565b60005b838110156106ec5780820151818401526020810190506106d1565b60008484015250505050565b6000601f19601f8301169050919050565b6000610714826106b2565b61071e81856106bd565b935061072e8185602086016106ce565b610737816106f8565b840191505092915050565b6000604082019050818103600083015261075c8185610709565b905061076b6020830184610528565b9392505050565b7f4e487b7100000000000000000000000000000000000000000000000000000000600052605160045260246000fdfea264697066735822122006c7d91368c8390cb4f21f6314ccd362b6d56cb17994af7009b53e7fb92411a864736f6c63430008180033",
  "linkReferences": {},
  "deployedLinkReferences": {}
}